:020000040800F2
:10000000902C002029020008B11D00087D1B00086B
:10001000AD1D00081F040008DB22000800000000DE
:10002000000000000000000000000000B51D0008F6
:100030002305000800000000B31D0008B71D0008DC
:10004000430200084302000843020008430200087C
:10005000430200084302000843020008430200086C
:10006000430200084302000843020008430200085C
:10007000430200084302000843020008430200084C
:10008000430200084302000843020008430200083C
:10009000430200084302000843020008430200082C
:1000A000430200084302000843020008430200081C
:1000B000430200084302000843020008430200080C
:1000C00043020008430200084302000843020008FC
:1000D00043020008430200084302000843020008EC
:1000E00043020008430200084302000843020008DC
:1000F00043020008430200084302000843020008CC
:1001000043020008430200084302000843020008BB
:1001100043020008430200084302000843020008AB
:1001200043020008250400084302000843020008B7
:10013000430200084302000843020008430200088B
:10014000430200084302000843020008430200087B
:10015000430200084302000843020008430200086B
:10016000430200084302000843020008430200085B
:100170004302000843020008430200080000000098
:10018000430200084302000800F002F800F03CF8C7
:100190000AA090E8000C82448344AAF10107DA45E2
:1001A00001D100F031F8AFF2090EBAE80F0013F0F8
:1001B000010F18BFFB1A43F0010318470C2400007D
:1001C0002C240000103A24BF78C878C1FAD852070E
:1001D00024BF30C830C144BF04680C6070470000C1
:1001E0000023002400250026103A28BF78C1FBD840
:1001F000520728BF30C148BF0B6070471FB502F0DF
:10020000CEF91FBD10B510BD00F0CFF81146FFF7B5
:10021000F5FF02F067F900F0EDF803B4FFF7F2FF25
:1002200003BC00F0F5F80000094880470948004782
:10023000FEE7FEE7FEE7FEE7FEE7FEE7FEE7FEE796
:10024000FEE7FEE704480549054A064B70470000F3
:10025000751E00088901000890260020902C0020BF
:10026000902800209028002053EA020C00F06980BA
:100270002DE9F04B4FF00006002B1FBFB3FA83F5BA
:1002800003FA05F424FA05F65E4012BF1643B2FAEB
:1002900082F502FA05F4C5F120051EBF22FA05FC1D
:1002A00044EA0C04203556EA044C4FEA144418BFC3
:1002B000641C4FF000084FF00009904271EB030CF2
:1002C00039D3002919BFB1FA81F701FA07F6B0FA5C
:1002D00080F700FA07F6C7F120071EBF20FA07FCD7
:1002E00046EA0C062037B6FBF4FCA7EB0507103FE7
:1002F00007F01F0BCBF120060CFA0BFB2CFA06F6CD
:1003000044BFB3460026202FA4BF5E464FF0000B2B
:100310005BEA060C08BF4FF0010B19EB0B09ABFBB6
:10032000027C48EB0608C01B06FB02CC0BFB03CC8F
:1003300071EB0C01C1E70B46024641464846BDE859
:10034000F08B13B54FF000004FF00001AFF30080C9
:10035000BDE81C4070474FF0000200B513469446BC
:100360009646203922BFA0E80C50A0E80C50B1F10D
:100370002001BFF4F7AF090728BFA0E80C5048BF21
:100380000CC05DF804EB890028BF40F8042B08BFBF
:10039000704748BF20F8022B11F0804F18BF00F8BB
:1003A000012B7047704770477047754600F02CF876
:1003B000AE4605006946534620F00700854618B052
:1003C00020B5FFF73FFFBDE820404FF000064FF09B
:1003D00000074FF000084FF0000B21F00701AC467A
:1003E000ACE8C009ACE8C009ACE8C009ACE8C00999
:1003F0008D46704710B50446AFF300802046BDE837
:100400001040FFF70ABF0000004870473026002068
:1004100001491820ABBEFEE726000200704700BF6E
:10042000FEE7000010B501F05BFF024800F08EF817
:1004300010BD0000D025002001680A4BCAB2103A56
:10044000A3FB02321209084B9B5CC365032A04D943
:100450006FF30901091D816502E06FF309018165F0
:10046000806D7047ABAAAAAAC025000801460020EB
:100470008A6A8B69002B0FD0B3F5005F1DD08AB359
:10048000012A30D0022A2ED0032A04D1C96A11F0E1
:10049000807F00D0012070471AB1012A07D0022ABC
:1004A000F9D1C96A11F0807FF5D001207047C96A7F
:1004B000B1F1C07FFAD1012070475AB1012A0BD0A7
:1004C000022A07D0032AF7D1C96AB1F1C07FF3D15C
:1004D0000120704701207047C96A11F0807FFAD06F
:1004E00001207047FFE70120704710B4D0F800C02A
:1004F000DCF8004024F48024CCF80040D0F800C0A0
:10050000CCF804308368402B05D0036899600068FC
:10051000C26010BC704703689A600068C16010BC7C
:1005200070477047704790F83510022903D080213A
:10053000416501207047052180F835100068016889
:1005400021F0010101600020704700002DE9F8430F
:1005500004464FF00008CDF8008076484FF416515D
:100560000068B0FBF1F7A56D2E6894F85C000821D7
:1005700001FA00F0304211D02068026812F0040F36
:100580000CD0026822F00402026094F85C0001FAC8
:1005900000F0A860606D40F00100606594F85C00B8
:1005A0004FF0010909FA00F0304209D02168496989
:1005B00011F0800F04D0A860606D40F0020060650B
:1005C00094F85C1004208840304209D02168096802
:1005D00011F0020F04D0A860606D40F00400606567
:1005E00094F85C1010208840304224D021680968BB
:1005F00011F0080F1FD0A8602068016811F4802F47
:100600000DD0006810F4002F04D0A16C99B12046E1
:10061000884710E0216C71B1204688470BE00168E3
:1006200011F4807F03D1016821F008010160216C81
:1006300009B12046884794F85C1020208840304259
:1006400051D02168096811F0100F4CD0A86094F8BF
:10065000350005280DD02068016811F4802F32D0B4
:10066000006810F4002F29D0E16B59B32046884769
:1006700039E02068016821F01601016020684169B5
:1006800021F080014161206C08B9A06C20B1206884
:10069000016821F00801016094F85C003F2101FA33
:1006A00000F0A86084F8359084F83480216D00292A
:1006B0003ED001B02046BDE8F0430847616C09B167
:1006C000204688470FE0016811F4807F07D1016858
:1006D00021F01001016084F8359084F83480E16BDA
:1006E00009B120468847606D002821D0606D10F068
:1006F000010F15D0052084F835002068016821F02D
:10070000010101600098401C0090B84204D82068A4
:10071000006810F0010FF5D184F8359084F834802A
:10072000E16C002904D001B02046BDE8F043084741
:10073000BDE8F883040000202DE9F041044600F0F4
:10074000D3F90546DCB1022084F83500002684F890
:1007500034602068016821F00101016020680068B0
:1007600010F0010F13D000F0BFF9401B052809D984
:1007700020206065032084F83500BDE8F081012069
:10078000BDE8F0812068006810F0010FEBD121680E
:100790000868234A1040A3686268D4F810C01A435E
:1007A000E36843EA0C031A4363691A43A3691A43D3
:1007B000E3691A43236A1A431043626A042A03D185
:1007C000236BE26A1A43104308602068406920F0F6
:1007D0000701606A40EA0105012704280ED1A06ADA
:1007E0000543E06A50B12046FFF740FE30B140209B
:1007F000606584F835700120BDE8F08120684561AE
:100800002046FFF719FE94F85C103F2202FA01F12E
:100810008160666584F835700020BDE8F0810000D5
:100820003F8010F070B504460025A66D94F83400A2
:1008300001280DD0012084F8340094F835C0002040
:10084000BCF1010F06D084F834000225284670BDA3
:10085000022070BD4FF0020C84F835C06065204660
:10086000FFF743FE94F85C003F2101FA00F0B0600E
:100870002068016841F016010160206C20B12068F9
:10088000016841F0080101602068016841F0010140
:100890000160DBE770B5044600F026F90546B4F1C7
:1008A000FF3F02D004480078044400F01DF9401BCB
:1008B000A042FAD370BD0000080000202DE9F84FD7
:1008C0000022DFF818A2DFF810924FF0010E032784
:1008D0004FF00F08AAF1040B0EFA02FC0B6803EAB2
:1008E0000C0363457DD10C7904F00304012C01D085
:1008F000022C14D18568540007FA04F6B543CE687B
:1009000006FA04F42C438460446824EA0C0C0C7945
:10091000C4F30014944044EA0C0CC0F804C0D1F8AD
:1009200004C037EA0C0C0CD0C4684FEA420C07FA3A
:100930000CF5AC438D6805FA0CFC4CEA040CC0F8CD
:100940000CC091F804C00CF0030CBCF1020F12D1E2
:100950004FEAD20C00EB8C04256A4FEA427C4FEA46
:10096000DC6C08FA0CF6B5430E6906FA0CFC4CEA8E
:10097000050CC4F820C004684FEA420C07FA0CF5D5
:10098000AC430D7905F0030505FA0CFC4CEA040CA8
:10099000C0F800C0D1F804C01CF4403F7DD0D9F8A5
:1009A00000C04CF4804CC9F800C0D9F800C00CF469
:1009B000804CCDF800C022F0030C0CF1804505F509
:1009C0009835D5F808C89407240F08FA04F62CEADD
:1009D0000606A0F1804CBCF5003C64D0A0F1804C30
:1009E00000E05AE0BCF5013C60D0A0F1804CBCF5C1
:1009F000023C5ED0A0F1804CBCF5033C5CD0A0F181
:100A0000804CBCF5043C5AD0A0F1804CBCF5053CB0
:100A100058D0A0F1804CBCF5063C56D0A0F1804CDB
:100A2000BCF5073C54D04FF0080C0CFA04FC4CEA1F
:100A3000060CC5F808C8DAF800C02CEA030C4C68AC
:100A400014F4801F01D04CEA030CCAF800C0244CF7
:100A5000D4F800C02CEA030C4D6815F4001F01D037
:100A60004CEA030CC4F800C0DBF800C02CEA030C0D
:100A70004C6814F4003F01D04CEA030CCBF800C0E2
:100A8000184CD4F800C02CEA030C4D6815F4803FD4
:100A900001D04CEA030CC4F800C0521C102AFFF429
:100AA0001BAFBDE8F88F4FF0000CBEE74FF0010C14
:100AB000BBE74FF0020CB8E74FF0030CB5E74FF07F
:100AC000040CB2E74FF0050CAFE74FF0060CACE7B3
:100AD0004FF0070CA9E7000044380240083C0140F1
:100AE0000C3C0140003C0140014880687047000018
:100AF0000800002002488168027811448160704734
:100B00000800002010B50B48016841F40071016035
:100B1000016841F480610160016841F48071016005
:100B2000032000F091F8002000F006F800F026F80D
:100B3000002010BD003C024070B504460D4D4FF43E
:100B40007A712878B1FBF0F00B490968B1FBF0F03D
:100B500000F0C4FB08B1012070BD102C07D20022A8
:100B60002146501E00F03CF86C60002070BD012052
:100B700070BD0000080000200400002008B500BF80
:100B8000002000900E48006840F480400C49086046
:100B90000846006800F48040009000BF00BF00BF1E
:100BA00000200090081F006840F08050091F086076
:100BB0000846006800F08050009000BF00BF08BDEC
:100BC0004438024000280ADB00F01F01012202FA2B
:100BD00001F14009800000F1E020C0F800117047E9
:100BE00010B4184B1B68C3F30223C3F1070CBCF10C
:100BF000040F01D94FF0040C1C1D072C01D2002357
:100C000000E0DB1E012404FA0CFCACF1010C0CEA40
:100C10000101994004FA03F35B1E1A4011430028B6
:100C200006DB00F1E020090180F8001410BC7047D9
:100C300000F00F0000F1E020090180F8141D10BC45
:100C4000704700000CED00E000F00700064A116854
:100C50004FF6FF03194041EA002040F0FD7040F0DC
:100C600080601060704700000CED00E02DE9F04757
:100C700004460D46002C13D0DFF85491D9F800003B
:100C8000EFB200F00700A8420DD289F80070D9F841
:100C9000000000F00700A84205D00120BDE8F08761
:100CA0000120BDE8F08720684A4E10F0020F14D0F2
:100CB00010F0040F03D0306840F4E050306020782A
:100CC00010F0080F03D0306840F4604030603068A6
:100CD000A16820F0F00008433060207810F0010F88
:100CE0003ED060683C49012808D002280DD0032876
:100CF0000BD0096811F0020F28D00AE0096811F43E
:100D0000003F06D10120BDE8F087096811F0007F9F
:100D100019D0316821F0030108433060FFF7E4FE89
:100D200080463068616800F00C00B0EB810F17D08E
:100D300041F2883AFFF7D8FEA0EB0800504508D9E9
:100D40000320BDE8F0870120BDE8F0870120BDE861
:100D5000F0873068616800F00C00B0EB810FE9D1DA
:100D6000D9F8000000F00700A8420AD989F80070FD
:100D7000D9F8000000F00700A84202D00120BDE829
:100D8000F087207810F0040F05D03068E16820F477
:100D9000E05008433060207810F0080F06D030682B
:100DA000216920F4604040EAC100306000F01CF886
:100DB00031680A4AC1F30311515CC8400849086010
:100DC00008480068FFF7B8FE0020BDE8F087000083
:100DD000003C02400838024000380240A8250008C4
:100DE000040000200C00002010B51748006810F027
:100DF0000C01164816D0164B042912D0082911D11F
:100E0000144C216801F03F02216811F4800F0AD0D0
:100E10002068C0F38810A0FB03010023FFF724FA29
:100E200009E0184610BD21680023C1F38811A1FB19
:100E30000001FFF719FA2168C1F30141491C49007B
:100E4000B0FBF1F010BD0000083802400024F400AF
:100E5000001BB700043802402DE9F84F0446002C6F
:100E600012D02078FB4E10F0010FA6F1040563D0DC
:100E7000301D016801F00C0104290CD0006800F05D
:100E80000C00082803D010E00120BDE8F88F30687E
:100E900010F4800F09D0286810F4003F4CD060682F
:100EA000002849D10120BDE8F88F6068B0F5803F87
:100EB00014D0B0F5A02F16D0286820F48030286018
:100EC000286820F480202860606810B3FFF70CFECB
:100ED0000746286810F4003F0ED02DE0286840F443
:100EE00080302860F0E7286840F480202860286877
:100EF00040F480302860E7E7FFF7F6FDC01B642868
:100F000002D90320BDE8F88F286810F4003FF3D021
:100F100012E0FFF7E9FD0746286810F4003F0BD008
:100F2000FFF7E2FDC01B642802D90320BDE8F88F5B
:100F3000286810F4003FF3D12078C74F10F0020F5B
:100F40004FF0000957D0C548016811F00C0F14D0BC
:100F5000006800F00C00082803D1306810F4800FFE
:100F60000BD0E06880B301203860FFF7BDFD8046FC
:100F7000286810F0020F12D01EE0286810F0020F4F
:100F800005D0E068012802D00120BDE8F88F28686C
:100F9000216920F0F80040EAC10028602BE0FFF74B
:100FA000A3FDA0EB0800022802D90320BDE8F88FBA
:100FB000286810F0020FF2D02868216920F0F800AC
:100FC00040EAC100286016E0FFE7C7F80090FFF78D
:100FD0008BFD8046286810F0020F0CD0FFF784FDCF
:100FE000A0EB0800022802D90320BDE8F88F28688A
:100FF00010F0020FF2D1207810F0080F35D0984889
:10100000DFF860A26169C1B101210160FFF76CFDE9
:101010008046DAF8000010F0020F26D1FFF764FDD9
:10102000A0EB0800022802D90320BDE8F88FDAF807
:10103000000010F0020FF1D017E0C0F80090FFF7A9
:1010400053FD8046DAF8000010F0020F0DD0FFF7D4
:101050004BFDA0EB0800022802D90320BDE8F88F61
:10106000DAF8000010F0020FF1D1207810F0040F30
:1010700071D04FF000087C48006810F0805F0AD102
:101080007948016841F080510160006800F08050AB
:1010900000904FF00108DFF8D4B1DBF8000010F445
:1010A000807F1BD1DBF8000040F48070CBF800009B
:1010B000FFF71AFD8246DBF8000010F4807F0DD1A7
:1010C000FFF712FDA0EB0A00022802D90320BDE8B9
:1010D000F88FDBF8000010F4807FF1D0A068DFF813
:1010E00090B1012818D005281DD0DBF8000020F0B1
:1010F0000100CBF80000DBF8000020F00400CBF882
:101100000000A06840B3FFF7EFFC8246DBF8000068
:1011100010F0020F14D03EE0DBF8000040F00100B8
:10112000CBF80000EDE7DBF8000040F00400CBF85E
:101130000000DBF8000040F00100CBF80000E0E721
:10114000FFF7D2FCA0EB0A0141F28830814204D9BA
:101150000320BDE8F88F26E005E0DBF8000010F082
:10116000020FEDD017E0FFF7BFFC8246DBF800006E
:1011700010F0020F0FD0FFF7B7FCA0EB0A0141F20D
:101180008830814202D90320BDE8F88FDBF80000E7
:1011900010F0020FEFD1B8F1010F04D1324801680D
:1011A00021F080510160A069F0B32C4909684FF02B
:1011B000FF3801F00C01082966D0022810D0C7F8CA
:1011C0006090FFF791FC0446286810F0007F2BD058
:1011D000FFF78AFC001B022851D90320BDE8F88FD5
:1011E000C7F86090FFF780FC8146286810F0007F08
:1011F0000CD0FFF779FCA0EB0900022802D90320EC
:10120000BDE8F88F286810F0007FF2D1216AE0690C
:10121000A26A0843616A08EB5202890141EA02416D
:10122000084394F82C1000E055E040EA016030607B
:1012300001203866FFF758FC0446286810F0007F4C
:1012400049D1FFF751FC001B022813D90320BDE848
:10125000F88F00000438024000004742083802407E
:10126000800E47427438024040380240007000400F
:1012700070380240286810F0007FE2D02BE0286828
:1012800010F0007FA4D126E0012822D03068E26966
:1012900000F4800191421AD1226A00F03F0191428C
:1012A00015D147F6C071626A0140B1EB821F0ED1C1
:1012B000A26A00F4403108EB5202B1EB024F06D1B2
:1012C00094F82C1000F07060B0EB016F03D0012097
:1012D000BDE70120BBE70020B9E70000401EB0F1E8
:1012E000807F01D3012070474FF0E0214861044A1C
:1012F000F0201070002088610720086100207047EE
:1013000023ED00E090F83C20012A2CD0012280F847
:101310003C20CA680023D1F808C022F4407242EA97
:101320000C02D1F804C022F4806242EA0C02D1F827
:1013300000C022F4006242EA0C02D1F810C022F48C
:10134000805242EA0C02D1F814C022F4005242EA60
:101350000C02C96922F4804211430268516480F88A
:101360003C30002070470220704730B490F83C2099
:10137000012A44D0012480F83C40022280F83D201C
:101380000268D2F804C093682CF0700C0D6845EA2E
:101390000C0CC2F804C00268A2F1804CBCF5803C81
:1013A00020D0B2F1804F1DD0A2F1804CBCF5806CF2
:1013B00018D0A2F1804CBCF5006C13D0A2F1804C87
:1013C000BCF5406C0ED0A2F1804CBCF5823C09D03B
:1013D000A2F1804CBCF5A03C04D0A2F1804CBCF53D
:1013E000C05C04D123F0800349681943916080F800
:1013F0003D40002180F83C1030BC0020704730BCDC
:101400000220704710B50446002C03D094F83D002C
:1014100010B107E0012010BD002084F83C002046F8
:1014200000F01EF8022084F83D00211D206800F025
:1014300053FD012084F8460084F83E0084F83F0004
:1014400084F8400084F8410084F8420084F84300A6
:1014500084F8440084F8450084F83D00002010BD65
:1014600038B5044626492068884231D100BF0020A3
:1014700000902448006840F00100224908600846B6
:10148000006800F00100009000BF00BF1E481F4927
:1014900008604FF04060486040211C488160002196
:1014A000C1604FF48061016149004161890081613F
:1014B0004911C161002101624162FFF73DF908B1A4
:1014C000FFF730F800BF114961620846846315E0F8
:1014D0000F492068884211D100BF002000900948C0
:1014E000001F006840F008000649091F0860084610
:1014F000006800F00800009000BF00BF38BD000089
:10150000000001404438024028640240D0250020F9
:10151000000C004070B50446002594F83C000128FA
:1015200018D0012684F83C60022084F83D00206831
:10153000826822F0770222F47F4282600868502895
:1015400039D00EDC202854D006DC002851D01028D9
:1015500011D14EE0022070BD30284AD040280AD177
:101560003DE0602831D070280DD0B0F5805F03D009
:10157000B0F5005F13D0012584F83D60002084F8A9
:101580003C00284670BDCB684A688968206800F036
:1015900090FD2068816841F077018160ECE7CB68BD
:1015A0004A688968206800F084FD2068816841F4F9
:1015B00080418160E0E7CA684968206800F068FE01
:1015C0005021206800F080FDD6E7CA68496820688D
:1015D00000F071FE6021206800F076FDCCE7CA685B
:1015E0004968206800F054FE4021206800F06CFD3E
:1015F000C2E722680146104600F066FDBCE770476E
:1016000010B586B00446142101A8FEF7A4FE2349B4
:10161000206888421ED100BF00200090204800684A
:1016200040F001001E4908600846006800F0010013
:10163000009000BF00BF881501900220029000209A
:101640000390022004900120059001A91548FFF79E
:1016500035F921E01449206888421DD100BF0020DF
:1016600000900F48006840F080000D49086008466F
:10167000006800F08000009000BF00BF4FF4E05011
:101680000190022002900120039002200490059016
:1016900001A90648FFF712F906B010BD000001408D
:1016A0003038024000000240000C0040001C0240A4
:1016B00070B50446002594F83C0001280FD00120A5
:1016C00084F83C006AB1042A0FD0082A11D00C2AF1
:1016D00013D00125002084F83C00284670BD02206C
:1016E00070BD206800F0F8FCF4E7206800F02CFDE5
:1016F000F0E7206800F064FDECE7206800F09CFD56
:10170000E8E710B50446002C03D094F83D0010B172
:1017100007E0012010BD002084F83C00204600F0C6
:101720001EF8022084F83D00211D206800F0D4FB43
:10173000012084F8460084F83E0084F83F0084F8D5
:10174000400084F8410084F8420084F8430084F8A3
:10175000440084F8450084F83D00002010BD704727
:1017600070B504460D46002694F83C0001280FD0C1
:10177000012084F83C006AB1042A1FD0082A32D024
:101780000C2A44D00126002084F83C00304670BD6D
:10179000022070BD2946206800F09EFC2068816907
:1017A00041F0080181612068816921F004018161B3
:1017B000206881692A6911438161E4E7294620682C
:1017C00000F0C2FC2068816941F4006181612068F9
:1017D000816921F480618161206881692A6941EA17
:1017E00002218161CFE72946206800F0E9FC2068EA
:1017F000C16941F00801C1612068C16921F004019B
:10180000C1612068C1692A691143C161BBE72946EA
:10181000206800F011FD2068C16941F40061C161D8
:101820002068C16921F48061C1612068C1692A69A9
:1018300041EA0221C161A6E710B50446002C03D09D
:1018400094F83D0010B107E0012010BD002084F89D
:101850003C00204600F01EF8022084F83D00211DC7
:10186000206800F039FB012084F8460084F83E002F
:1018700084F83F0084F8400084F8410084F8420076
:1018800084F8430084F8440084F8450084F83D005F
:10189000002010BD70477047704700002DE9F041EF
:1018A00004460D4617460026002D13D0042D14D0F3
:1018B000082D15D094F84100022814D0B5B1042D9C
:1018C00017D0082D18D094F84100012817D0012016
:1018D000BDE8F08194F83E00EEE794F83F00EBE7B6
:1018E00094F84000E8E70220BDE8F08194F83E005B
:1018F000EBE794F83F00E8E794F84000E5E71FB90C
:1019000013B10120BDE8F081022035B1042D07D0CC
:10191000082D08D084F8410007E084F83E0004E078
:1019200084F83F0001E084F8400058485849DFF847
:1019300064C14DB1042D1FD0082D35D00C2D4BD0D6
:101940000126002E60D094E0626AD063606A016470
:10195000606AC0F84CC02068394600F13402606A01
:10196000FEF760FF10B10120BDE8F0812068C1687A
:1019700041F40071C160E4E7A26AD063A06A016427
:10198000A06AC0F84CC02068394600F13802A06A4D
:10199000FEF748FF10B10120BDE8F0812068C16862
:1019A00041F48061C160CCE7E26AD063E06A01641F
:1019B000E06AC0F84CC02068394600F13C02E06A99
:1019C000FEF730FF10B10120BDE8F0812068C1684A
:1019D00041F40061C160B4E7226BD063206B016405
:1019E000206BC0F84CC02068394600F14002206BE3
:1019F000FEF718FF10B10120BDE8F0812068C16832
:101A000041F48051C1609CE701222946206800F022
:101A1000C9FA21492068214A884201D0904203D165
:101A2000436C43F4004343642068884224D0B0F1FF
:101A3000804F21D0A0F18041B1F580611CD0A0F190
:101A40008041B1F5006117D0A0F18041B1F540614E
:101A500012D0904210D0A0F18041B1F5A0310BD04E
:101A6000A0F18041B1F5C05106D0016841F00101FB
:101A700001603046BDE8F081816801F00701062968
:101A8000F7D0016841F001010160F2E7C31F0008CF
:101A9000212000085F2000080000014000040140F0
:101AA00070B504460D460026002D08D0042D0FD039
:101AB000082D16D00C2D1DD0012626B353E020682A
:101AC000C16821F40071C160606AFEF72CFDF4E783
:101AD0002068C16821F48061C160A06AFEF723FD1F
:101AE000EBE72068C16821F40061C160E06AFEF79D
:101AF0001AFDE2E72068C16821F48051C160206BC3
:101B0000FEF711FDD9E700222946206800F04AFAC5
:101B1000206841F211118A10A0F18043B3F580339F
:101B200004D0A0F18043B3F5823309D1036A0B429C
:101B300006D1036A134203D1436C23F40043436488
:101B40002068036A0B4206D1016A114203D1016881
:101B500021F00101016001203DB1042D08D0082DC4
:101B600009D084F84100304670BD84F83E00FAE7A1
:101B700084F83F00F7E784F84000F4E700BFFEE791
:101B800008B500BF002000900A48006840F48000BB
:101B9000084908600846006800F48000009000BF13
:101BA00000BF002211463920FFF71AF83920FFF74D
:101BB00009F808BD3038024008B500BF0020009089
:101BC0000E48006840F001000C49086008460068B3
:101BD00000F00100009000BF00BF00BF0020009097
:101BE0000846006840F0800008600846006800F081
:101BF0008000009000BF00BF08BD000030380240E8
:101C000000B595B0002011901290139014900F9091
:101C100010901C2108A8FEF79EFB20216846FEF7C5
:101C20009AFB2E482E4908600020486000212C486D
:101C300081606821C1600021016141618161FFF71C
:101C4000E1FB08B1FEF76EFC4FF48050119011A932
:101C50002348FFF75FFC08B1FEF764FC2048FFF75C
:101C600050FD08B1FEF75EFC00200F9010900FA908
:101C70001B48FFF77AFB08B1FEF754FC00200890E0
:101C800009900A900B900C900D900E90002208A9DC
:101C90001348FFF70DFD08B1FEF744FC104800683B
:101CA000806940F008000E490968886100200090B2
:101CB00001900290039004904FF400500590002092
:101CC000079069460648FFF71DFB08B1FEF72AFC9E
:101CD0000348FFF795FC15B000BD0000000001406F
:101CE0004025002000B58DB0002009900A900B908F
:101CF0000C90079008901C216846FEF72CFB2948A1
:101D000029490860002048600021274881604FF67B
:101D1000FF71C160002101618161FFF773FB08B1B0
:101D2000FEF700FC4FF48050099009A91E48FFF708
:101D3000F1FB08B1FEF7F6FB1B48FFF77DFD08B18C
:101D4000FEF7F0FB00200790089007A91648FFF760
:101D50000CFB08B1FEF7E6FB6020009042F2107029
:101D60000190002002900490002269460E48FFF77F
:101D7000F7FC08B1FEF7D6FB042269460A48FFF7D4
:101D8000EFFC08B1FEF7CEFB082269460648FFF7D4
:101D9000E7FC08B1FEF7C6FB0348FFF731FC0DB0C6
:101DA00000BD0000000C00408825002000BFFEE7B9
:101DB00070477047704710B5FEF79CFE10BD0000DD
:101DC00000B593B0302107A8FEF7C5FA142102A888
:101DD000FEF7C1FA00BF002001902448006840F0DF
:101DE0008050224908600846006800F08050019049
:101DF00000BF00BF00BF002001901D48006840F4F4
:101E000080401B4908600846006800F4804001904B
:101E100000BF00BF012007900004089002200D9031
:101E200041050E9106210F91A821109102211191D7
:101E30000421129107A8FFF70FF808B1FEF772FB13
:101E40000F20029002200390002004904FF4A05035
:101E500005904FF480500690052102A8FEF706FF7A
:101E600008B1FEF75FFB13B000BD00004038024030
:101E7000007000401448006840F470001249086087
:101E80001248006840F001001049086000200F4926
:101E9000083108600D4800680D4908400B4908608A
:101EA0000C48091D0860081F006820F48020091FE5
:101EB0000860002005490C3108604FF000600249BD
:101EC000803908607047000088ED00E0003802406B
:101ED000FFFFF6FE10300024F0B402682C4B2D4CAE
:101EE0002D4D2E4EDFF8B8C098420AD0B0F1804F89
:101EF00007D0A04205D0A84203D0B04201D060452F
:101F000003D122F070024F683A43984228D0B0F1D2
:101F1000804F25D0A04223D0A84221D0B0421FD06C
:101F200060451DD0A0F18044B4F5A03418D0A0F1D4
:101F30008044B4F5A23413D0A0F18044B4F5A434A5
:101F40000ED0A0F18044B4F5C05409D0A0F1804473
:101F5000B4F5E05404D0A0F18044B4F5005403D1AA
:101F600022F44072CC6822434C6922F08002224362
:101F700002608A68C2620A688262984201D0604543
:101F800001D10969016301214161F0BC7047000082
:101F9000000001400004004000080040000C004028
:101FA0000004014001F01F0101238B40D0F820C044
:101FB0002CEA03030362036A02FA01F11943016286
:101FC000704710B5846B0121626A824205D1217786
:101FD000C069F8B984F83E101CE0A26A824206D1BA
:101FE00002222277C069A8B984F83F1012E0E26AA1
:101FF000824206D104222277C06958B984F8401081
:1020000008E0226B824205D108222277C06908B914
:1020100084F841102046FFF73EFC0020207710BDD9
:1020200010B5846B616A814202D10120207710E0F3
:10203000A16A814202D1022020770AE0E16A81424E
:1020400002D10420207704E0216B814201D10820D5
:1020500020772046FFF720FC0020207710BD10B528
:10206000846B0121626A824203D1217784F83E1099
:1020700019E0A26A824204D10220207784F83F103E
:1020800011E0E26A824204D10420207784F84010F3
:1020900009E0226B824204D10820207784F84110A5
:1020A00001E084F83D102046FFF7A9FA00202077D0
:1020B00010BDD0F808C02CF47F4C42EA0322114333
:1020C00041EA0C0181607047826822F0700211437E
:1020D00041F007018160704770B4026A22F001028A
:1020E0000262036A4268D0F818C02CF0700C2CF021
:1020F000030C0C6844EA0C0C23F002038C682343A5
:102100000F4C104DA04201D0A84205D123F0080386
:10211000CE68334323F00403A04201D0A84207D184
:1021200022F4807222F400724C6922438C692243AB
:102130004260C0F818C049684163036270BC7047D0
:10214000000001400004014070B4026A22F0100255
:102150000262036A4268D0F818C02CF4E04C2CF4F8
:10216000407C0C684CEA042C23F020038C6843EA82
:102170000413114C114DA04201D0A84206D123F006
:102180008003CE6843EA061323F04003A04201D047
:10219000A84209D122F4806222F400624C6942EA2A
:1021A00084028C6942EA84024260C0F818C049681F
:1021B0008163036270BC704700000140000401406D
:1021C00070B4026A22F480720262036A4268D0F834
:1021D0001CC02CF0700C2CF0030C0C6844EA0C0CA6
:1021E00023F400738C6843EA0423114C114DA04280
:1021F00001D0A84206D123F40063CE6843EA062347
:1022000023F48063A04201D0A84209D122F4805275
:1022100022F400524C6942EA04128C6942EA041228
:102220004260C0F81CC04968C163036270BC70475B
:10223000000001400004014010B4026A22F4805200
:102240000262D0F820C04268C36923F4E04323F45B
:1022500040730C6843EA04232CF4005C8C684CEA5D
:10226000043CA0F18044B4F5803404D0A0F1804453
:10227000B4F5823404D122F480424C6942EA8412DB
:102280004260C36149680164C0F820C010BC704757
:10229000036AD0F820C02CF0010CC0F820C0D0F8A0
:1022A00018C02CF0F00C4CEA021223F00A03194378
:1022B000826101627047036A23F010030362D0F861
:1022C00018C0036A2CF4704C4CEA023223F0A003CD
:1022D00043EA011182610162704700BFFEE700001E
:1022E0002DE9F041774800687749884205D976485A
:1022F0005438006800F001001BE072480068734920
:10230000884205D970485838006800F0010010E094
:102310006C4800686D496039884205D96B48B83807
:10232000406800F0010004E06848B838006800F038
:102330000100002843D0634800686349884204D9FB
:10234000012061494C39086018E05E4800685F4927
:10235000884204D901205C49503908600EE0594890
:1023600000685A496039884204D901205749B83970
:10237000C86003E001205549B839886000241BE09B
:10238000534D2D88254405EB4505524E3544AB7819
:102390004F4D2D88254405EB450535446A784C4D55
:1023A0002D88254405EB4505715D4B4D182606FB30
:1023B000045000F0D9F8641C7A2CE1DB6AE0414853
:1023C00000684149884204D93F48543800680020D9
:1023D00018E03C4800683D49884204D93A485838DA
:1023E000006800200EE037480068384960398842AC
:1023F00004D93648B8384068002003E03348B8387C
:1024000000680020F0B32F4800682F49884204D9A3
:1024100000202D494C39086018E02A4800682B49F3
:10242000884204D900202849503908600EE0254828
:10243000006826496039884204D900202349B83908
:10244000C86003E000202149B839886000241FE0FB
:102450001F4D2D88254405EB45051E4E3544AB78B0
:102460001B4D2D88254405EB450535446A78184DEC
:102470002D88254405EB4505715D174E04F17A055D
:10248000182700E006E007FB056000F06DF8641C0B
:102490007A2CDDDB0E48008840F2C44188420ADD18
:1024A00000200B4908800D49087000210C48FFF7F7
:1024B000F7FABDE8F081064800887A3004490880C0
:1024C00000BFF6E7D025002058640240B860024003
:1024D00002000020F416002014000020000000205C
:1024E00040250020FEF70EFBFFF76AFCFFF764FBB8
:1024F000FFF746FBFFF7F6FBFFF782FB00F006F85D
:1025000003E04FF47A70FEF7C5F9FAE710B500243E
:1025100006E0A0B200231A46642100F015F8641CFE
:10252000642CF6DB00F002F810BD000010B54FF48B
:10253000B753034A00210348FFF7B0F910BD00006C
:10254000140000204025002030B500EB4004054D6C
:10255000295500EB40042C44627000EB40042C44ED
:10256000A37030BDF4160020F0B500240025160637
:1025700046EA014646EA032418250AE004F000462C
:102580001EB1452600F8016B02E0232600F8016B1E
:1025900064002E1EA5F10107FDB2EFD1F0BD4FF092
:1025A0004070E1EE100A70470000000000000000DB
:1025B00001020304060708090000000001020304E9
:1025C0000006101600061016E8250008000000207E
:1025D00014000000C4010008FC25000814000020BD
:1025E0007C2C0000E0010008000000000024F40042
:0C25F000010000001000000000000000CE
:040000050800018965
:00000001FF
