:020000040800F2
:10000000482C002029020008611B0008C9190008BB
:100010005D1B00081F0400088B2000080000000082
:10002000000000000000000000000000651B000848
:100030002305000800000000631B0008671B000880
:10004000430200084302000843020008430200087C
:10005000430200084302000843020008430200086C
:10006000430200084302000843020008430200085C
:10007000430200084302000843020008430200084C
:10008000430200084302000843020008430200083C
:10009000430200084302000843020008430200082C
:1000A000430200084302000843020008430200081C
:1000B000430200084302000843020008430200080C
:1000C00043020008430200084302000843020008FC
:1000D00043020008430200084302000843020008EC
:1000E00043020008430200084302000843020008DC
:1000F00043020008430200084302000843020008CC
:1001000043020008430200084302000843020008BB
:1001100043020008430200084302000843020008AB
:1001200043020008250400084302000843020008B7
:10013000430200084302000843020008430200088B
:10014000430200084302000843020008430200087B
:10015000430200084302000843020008430200086B
:10016000430200084302000843020008430200085B
:100170004302000843020008430200080000000098
:10018000430200084302000800F002F800F03CF8C7
:100190000AA090E8000C82448344AAF10107DA45E2
:1001A00001D100F031F8AFF2090EBAE80F0013F0F8
:1001B000010F18BFFB1A43F001031847F02100009C
:1001C00010220000103A24BF78C878C1FAD852072C
:1001D00024BF30C830C144BF04680C6070470000C1
:1001E0000023002400250026103A28BF78C1FBD840
:1001F000520728BF30C148BF0B6070471FB502F0DF
:10020000C0F81FBD10B510BD00F0CFF81146FFF7C4
:10021000F5FF02F045F800F0EDF803B4FFF7F2FF48
:1002200003BC00F0F5F80000094880470948004782
:10023000FEE7FEE7FEE7FEE7FEE7FEE7FEE7FEE796
:10024000FEE7FEE704480549054A064B70470000F3
:10025000251C00088901000848260020482C0020A1
:10026000482800204828002053EA020C00F069804A
:100270002DE9F04B4FF00006002B1FBFB3FA83F5BA
:1002800003FA05F424FA05F65E4012BF1643B2FAEB
:1002900082F502FA05F4C5F120051EBF22FA05FC1D
:1002A00044EA0C04203556EA044C4FEA144418BFC3
:1002B000641C4FF000084FF00009904271EB030CF2
:1002C00039D3002919BFB1FA81F701FA07F6B0FA5C
:1002D00080F700FA07F6C7F120071EBF20FA07FCD7
:1002E00046EA0C062037B6FBF4FCA7EB0507103FE7
:1002F00007F01F0BCBF120060CFA0BFB2CFA06F6CD
:1003000044BFB3460026202FA4BF5E464FF0000B2B
:100310005BEA060C08BF4FF0010B19EB0B09ABFBB6
:10032000027C48EB0608C01B06FB02CC0BFB03CC8F
:1003300071EB0C01C1E70B46024641464846BDE859
:10034000F08B13B54FF000004FF00001AFF30080C9
:10035000BDE81C4070474FF0000200B513469446BC
:100360009646203922BFA0E80C50A0E80C50B1F10D
:100370002001BFF4F7AF090728BFA0E80C5048BF21
:100380000CC05DF804EB890028BF40F8042B08BFBF
:10039000704748BF20F8022B11F0804F18BF00F8BB
:1003A000012B7047704770477047754600F02CF876
:1003B000AE4605006946534620F00700854618B052
:1003C00020B5FFF73FFFBDE820404FF000064FF09B
:1003D00000074FF000084FF0000B21F00701AC467A
:1003E000ACE8C009ACE8C009ACE8C009ACE8C00999
:1003F0008D46704710B50446AFF300802046BDE837
:100400001040FFF70ABF000000487047E8250020B1
:1004100001491820ABBEFEE726000200704700BF6E
:10042000FEE7000010B501F033FE024800F08EF840
:1004300010BD00008825002001680A4BCAB2103A9E
:10044000A3FB02321209084B9B5CC365032A04D943
:100450006FF30901091D816502E06FF309018165F0
:10046000806D7047ABAAAAAAA42300080146002009
:100470008A6A8B69002B0FD0B3F5005F1DD08AB359
:10048000012A30D0022A2ED0032A04D1C96A11F0E1
:10049000807F00D0012070471AB1012A07D0022ABC
:1004A000F9D1C96A11F0807FF5D001207047C96A7F
:1004B000B1F1C07FFAD1012070475AB1012A0BD0A7
:1004C000022A07D0032AF7D1C96AB1F1C07FF3D15C
:1004D0000120704701207047C96A11F0807FFAD06F
:1004E00001207047FFE70120704710B4D0F800C02A
:1004F000DCF8004024F48024CCF80040D0F800C0A0
:10050000CCF804308368402B05D0036899600068FC
:10051000C26010BC704703689A600068C16010BC7C
:1005200070477047704790F83510022903D080213A
:10053000416501207047052180F835100068016889
:1005400021F0010101600020704700002DE9F8430F
:1005500004464FF00008CDF8008076484FF416515D
:100560000068B0FBF1F7A56D2E6894F85C000821D7
:1005700001FA00F0304211D02068026812F0040F36
:100580000CD0026822F00402026094F85C0001FAC8
:1005900000F0A860606D40F00100606594F85C00B8
:1005A0004FF0010909FA00F0304209D02168496989
:1005B00011F0800F04D0A860606D40F0020060650B
:1005C00094F85C1004208840304209D02168096802
:1005D00011F0020F04D0A860606D40F00400606567
:1005E00094F85C1010208840304224D021680968BB
:1005F00011F0080F1FD0A8602068016811F4802F47
:100600000DD0006810F4002F04D0A16C99B12046E1
:10061000884710E0216C71B1204688470BE00168E3
:1006200011F4807F03D1016821F008010160216C81
:1006300009B12046884794F85C1020208840304259
:1006400051D02168096811F0100F4CD0A86094F8BF
:10065000350005280DD02068016811F4802F32D0B4
:10066000006810F4002F29D0E16B59B32046884769
:1006700039E02068016821F01601016020684169B5
:1006800021F080014161206C08B9A06C20B1206884
:10069000016821F00801016094F85C003F2101FA33
:1006A00000F0A86084F8359084F83480216D00292A
:1006B0003ED001B02046BDE8F0430847616C09B167
:1006C000204688470FE0016811F4807F07D1016858
:1006D00021F01001016084F8359084F83480E16BDA
:1006E00009B120468847606D002821D0606D10F068
:1006F000010F15D0052084F835002068016821F02D
:10070000010101600098401C0090B84204D82068A4
:10071000006810F0010FF5D184F8359084F834802A
:10072000E16C002904D001B02046BDE8F043084741
:10073000BDE8F883040000202DE9F041044600F0F4
:10074000D3F90546DCB1022084F83500002684F890
:1007500034602068016821F00101016020680068B0
:1007600010F0010F13D000F0BFF9401B052809D984
:1007700020206065032084F83500BDE8F081012069
:10078000BDE8F0812068006810F0010FEBD121680E
:100790000868234A1040A3686268D4F810C01A435E
:1007A000E36843EA0C031A4363691A43A3691A43D3
:1007B000E3691A43236A1A431043626A042A03D185
:1007C000236BE26A1A43104308602068406920F0F6
:1007D0000701606A40EA0105012704280ED1A06ADA
:1007E0000543E06A50B12046FFF740FE30B140209B
:1007F000606584F835700120BDE8F08120684561AE
:100800002046FFF719FE94F85C103F2202FA01F12E
:100810008160666584F835700020BDE8F0810000D5
:100820003F8010F070B504460025A66D94F83400A2
:1008300001280DD0012084F8340094F835C0002040
:10084000BCF1010F06D084F834000225284670BDA3
:10085000022070BD4FF0020C84F835C06065204660
:10086000FFF743FE94F85C003F2101FA00F0B0600E
:100870002068016841F016010160206C20B12068F9
:10088000016841F0080101602068016841F0010140
:100890000160DBE770B5044600F026F90546B4F1C7
:1008A000FF3F02D004480078044400F01DF9401BCB
:1008B000A042FAD370BD0000080000202DE9F84FD7
:1008C0000022DFF818A2DFF810924FF0010E032784
:1008D0004FF00F08AAF1040B0EFA02FC0B6803EAB2
:1008E0000C0363457DD10C7904F00304012C01D085
:1008F000022C14D18568540007FA04F6B543CE687B
:1009000006FA04F42C438460446824EA0C0C0C7945
:10091000C4F30014944044EA0C0CC0F804C0D1F8AD
:1009200004C037EA0C0C0CD0C4684FEA420C07FA3A
:100930000CF5AC438D6805FA0CFC4CEA040CC0F8CD
:100940000CC091F804C00CF0030CBCF1020F12D1E2
:100950004FEAD20C00EB8C04256A4FEA427C4FEA46
:10096000DC6C08FA0CF6B5430E6906FA0CFC4CEA8E
:10097000050CC4F820C004684FEA420C07FA0CF5D5
:10098000AC430D7905F0030505FA0CFC4CEA040CA8
:10099000C0F800C0D1F804C01CF4403F7DD0D9F8A5
:1009A00000C04CF4804CC9F800C0D9F800C00CF469
:1009B000804CCDF800C022F0030C0CF1804505F509
:1009C0009835D5F808C89407240F08FA04F62CEADD
:1009D0000606A0F1804CBCF5003C64D0A0F1804C30
:1009E00000E05AE0BCF5013C60D0A0F1804CBCF5C1
:1009F000023C5ED0A0F1804CBCF5033C5CD0A0F181
:100A0000804CBCF5043C5AD0A0F1804CBCF5053CB0
:100A100058D0A0F1804CBCF5063C56D0A0F1804CDB
:100A2000BCF5073C54D04FF0080C0CFA04FC4CEA1F
:100A3000060CC5F808C8DAF800C02CEA030C4C68AC
:100A400014F4801F01D04CEA030CCAF800C0244CF7
:100A5000D4F800C02CEA030C4D6815F4001F01D037
:100A60004CEA030CC4F800C0DBF800C02CEA030C0D
:100A70004C6814F4003F01D04CEA030CCBF800C0E2
:100A8000184CD4F800C02CEA030C4D6815F4803FD4
:100A900001D04CEA030CC4F800C0521C102AFFF429
:100AA0001BAFBDE8F88F4FF0000CBEE74FF0010C14
:100AB000BBE74FF0020CB8E74FF0030CB5E74FF07F
:100AC000040CB2E74FF0050CAFE74FF0060CACE7B3
:100AD0004FF0070CA9E7000044380240083C0140F1
:100AE0000C3C0140003C0140014880687047000018
:100AF0000800002002488168027811448160704734
:100B00000800002010B50B48016841F40071016035
:100B1000016841F480610160016841F48071016005
:100B2000032000F091F8002000F006F800F026F80D
:100B3000002010BD003C024070B504460D4D4FF43E
:100B40007A712878B1FBF0F00B490968B1FBF0F03D
:100B500000F0C4FB08B1012070BD102C07D20022A8
:100B60002146501E00F03CF86C60002070BD012052
:100B700070BD0000080000200400002008B500BF80
:100B8000002000900E48006840F480400C49086046
:100B90000846006800F48040009000BF00BF00BF1E
:100BA00000200090081F006840F08050091F086076
:100BB0000846006800F08050009000BF00BF08BDEC
:100BC0004438024000280ADB00F01F01012202FA2B
:100BD00001F14009800000F1E020C0F800117047E9
:100BE00010B4184B1B68C3F30223C3F1070CBCF10C
:100BF000040F01D94FF0040C1C1D072C01D2002357
:100C000000E0DB1E012404FA0CFCACF1010C0CEA40
:100C10000101994004FA03F35B1E1A4011430028B6
:100C200006DB00F1E020090180F8001410BC7047D9
:100C300000F00F0000F1E020090180F8141D10BC45
:100C4000704700000CED00E000F00700064A116854
:100C50004FF6FF03194041EA002040F0FD7040F0DC
:100C600080601060704700000CED00E02DE9F04757
:100C700004460D46002C13D0DFF85491D9F800003B
:100C8000EFB200F00700A8420DD289F80070D9F841
:100C9000000000F00700A84205D00120BDE8F08761
:100CA0000120BDE8F08720684A4E10F0020F14D0F2
:100CB00010F0040F03D0306840F4E050306020782A
:100CC00010F0080F03D0306840F4604030603068A6
:100CD000A16820F0F00008433060207810F0010F88
:100CE0003ED060683C49012808D002280DD0032876
:100CF0000BD0096811F0020F28D00AE0096811F43E
:100D0000003F06D10120BDE8F087096811F0007F9F
:100D100019D0316821F0030108433060FFF7E4FE89
:100D200080463068616800F00C00B0EB810F17D08E
:100D300041F2883AFFF7D8FEA0EB0800504508D9E9
:100D40000320BDE8F0870120BDE8F0870120BDE861
:100D5000F0873068616800F00C00B0EB810FE9D1DA
:100D6000D9F8000000F00700A8420AD989F80070FD
:100D7000D9F8000000F00700A84202D00120BDE829
:100D8000F087207810F0040F05D03068E16820F477
:100D9000E05008433060207810F0080F06D030682B
:100DA000216920F4604040EAC100306000F01CF886
:100DB00031680A4AC1F30311515CC8400849086010
:100DC00008480068FFF7B8FE0020BDE8F087000083
:100DD000003C024008380240003802408C230008E2
:100DE000040000200C00002010B51748006810F027
:100DF0000C01164816D0164B042912D0082911D11F
:100E0000144C216801F03F02216811F4800F0AD0D0
:100E10002068C0F38810A0FB03010023FFF724FA29
:100E200009E0184610BD21680023C1F38811A1FB19
:100E30000001FFF719FA2168C1F30141491C49007B
:100E4000B0FBF1F010BD0000083802400024F400AF
:100E5000001BB700043802402DE9F84F0446002C6F
:100E600012D02078FB4E10F0010FA6F1040563D0DC
:100E7000301D016801F00C0104290CD0006800F05D
:100E80000C00082803D010E00120BDE8F88F30687E
:100E900010F4800F09D0286810F4003F4CD060682F
:100EA000002849D10120BDE8F88F6068B0F5803F87
:100EB00014D0B0F5A02F16D0286820F48030286018
:100EC000286820F480202860606810B3FFF70CFECB
:100ED0000746286810F4003F0ED02DE0286840F443
:100EE00080302860F0E7286840F480202860286877
:100EF00040F480302860E7E7FFF7F6FDC01B642868
:100F000002D90320BDE8F88F286810F4003FF3D021
:100F100012E0FFF7E9FD0746286810F4003F0BD008
:100F2000FFF7E2FDC01B642802D90320BDE8F88F5B
:100F3000286810F4003FF3D12078C74F10F0020F5B
:100F40004FF0000957D0C548016811F00C0F14D0BC
:100F5000006800F00C00082803D1306810F4800FFE
:100F60000BD0E06880B301203860FFF7BDFD8046FC
:100F7000286810F0020F12D01EE0286810F0020F4F
:100F800005D0E068012802D00120BDE8F88F28686C
:100F9000216920F0F80040EAC10028602BE0FFF74B
:100FA000A3FDA0EB0800022802D90320BDE8F88FBA
:100FB000286810F0020FF2D02868216920F0F800AC
:100FC00040EAC100286016E0FFE7C7F80090FFF78D
:100FD0008BFD8046286810F0020F0CD0FFF784FDCF
:100FE000A0EB0800022802D90320BDE8F88F28688A
:100FF00010F0020FF2D1207810F0080F35D0984889
:10100000DFF860A26169C1B101210160FFF76CFDE9
:101010008046DAF8000010F0020F26D1FFF764FDD9
:10102000A0EB0800022802D90320BDE8F88FDAF807
:10103000000010F0020FF1D017E0C0F80090FFF7A9
:1010400053FD8046DAF8000010F0020F0DD0FFF7D4
:101050004BFDA0EB0800022802D90320BDE8F88F61
:10106000DAF8000010F0020FF1D1207810F0040F30
:1010700071D04FF000087C48006810F0805F0AD102
:101080007948016841F080510160006800F08050AB
:1010900000904FF00108DFF8D4B1DBF8000010F445
:1010A000807F1BD1DBF8000040F48070CBF800009B
:1010B000FFF71AFD8246DBF8000010F4807F0DD1A7
:1010C000FFF712FDA0EB0A00022802D90320BDE8B9
:1010D000F88FDBF8000010F4807FF1D0A068DFF813
:1010E00090B1012818D005281DD0DBF8000020F0B1
:1010F0000100CBF80000DBF8000020F00400CBF882
:101100000000A06840B3FFF7EFFC8246DBF8000068
:1011100010F0020F14D03EE0DBF8000040F00100B8
:10112000CBF80000EDE7DBF8000040F00400CBF85E
:101130000000DBF8000040F00100CBF80000E0E721
:10114000FFF7D2FCA0EB0A0141F28830814204D9BA
:101150000320BDE8F88F26E005E0DBF8000010F082
:10116000020FEDD017E0FFF7BFFC8246DBF800006E
:1011700010F0020F0FD0FFF7B7FCA0EB0A0141F20D
:101180008830814202D90320BDE8F88FDBF80000E7
:1011900010F0020FEFD1B8F1010F04D1324801680D
:1011A00021F080510160A069F0B32C4909684FF02B
:1011B000FF3801F00C01082966D0022810D0C7F8CA
:1011C0006090FFF791FC0446286810F0007F2BD058
:1011D000FFF78AFC001B022851D90320BDE8F88FD5
:1011E000C7F86090FFF780FC8146286810F0007F08
:1011F0000CD0FFF779FCA0EB0900022802D90320EC
:10120000BDE8F88F286810F0007FF2D1216AE0690C
:10121000A26A0843616A08EB5202890141EA02416D
:10122000084394F82C1000E055E040EA016030607B
:1012300001203866FFF758FC0446286810F0007F4C
:1012400049D1FFF751FC001B022813D90320BDE848
:10125000F88F00000438024000004742083802407E
:10126000800E47427438024040380240007000400F
:1012700070380240286810F0007FE2D02BE0286828
:1012800010F0007FA4D126E0012822D03068E26966
:1012900000F4800191421AD1226A00F03F0191428C
:1012A00015D147F6C071626A0140B1EB821F0ED1C1
:1012B000A26A00F4403108EB5202B1EB024F06D1B2
:1012C00094F82C1000F07060B0EB016F03D0012097
:1012D000BDE70120BBE70020B9E70000401EB0F1E8
:1012E000807F01D3012070474FF0E0214861044A1C
:1012F000F0201070002088610720086100207047EE
:1013000023ED00E090F83C20012A2CD0012280F847
:101310003C20CA680023D1F808C022F4407242EA97
:101320000C02D1F804C022F4806242EA0C02D1F827
:1013300000C022F4006242EA0C02D1F810C022F48C
:10134000805242EA0C02D1F814C022F4005242EA60
:101350000C02C96922F4804211430268516480F88A
:101360003C30002070470220704730B490F83C2099
:10137000012A44D0012480F83C40022280F83D201C
:101380000268D2F804C093682CF0700C0D6845EA2E
:101390000C0CC2F804C00268A2F1804CBCF5803C81
:1013A00020D0B2F1804F1DD0A2F1804CBCF5806CF2
:1013B00018D0A2F1804CBCF5006C13D0A2F1804C87
:1013C000BCF5406C0ED0A2F1804CBCF5823C09D03B
:1013D000A2F1804CBCF5A03C04D0A2F1804CBCF53D
:1013E000C05C04D123F0800349681943916080F800
:1013F0003D40002180F83C1030BC0020704730BCDC
:101400000220704710B50446002C03D094F83D002C
:1014100010B107E0012010BD002084F83C002046F8
:1014200000F01EF8022084F83D00211D206800F025
:101430002BFC012084F8460084F83E0084F83F002D
:1014400084F8400084F8410084F8420084F84300A6
:1014500084F8440084F8450084F83D00002010BD65
:1014600038B504461B492068884231D100BF0020AE
:1014700000901948006840F00100174908600846CC
:10148000006800F00100009000BF00BF134814493D
:1014900008604FF0406048604021114881600021A1
:1014A000C1604FF48061016149004161890081613F
:1014B0004911C161002101624162FFF73DF908B1A4
:1014C000FFF730F800BF064961620846846300BF39
:1014D00038BD00000000014044380240286402404A
:1014E0008825002070B50446002594F83C000128AA
:1014F00018D0012684F83C60022084F83D00206862
:10150000826822F0770222F47F42826008685028C5
:1015100039D00EDC202854D006DC002851D0102809
:1015200011D14EE0022070BD30284AD040280AD1A7
:101530003DE0602831D070280DD0B0F5805F03D039
:10154000B0F5005F13D0012584F83D60002084F8D9
:101550003C00284670BDCB684A688968206800F066
:1015600080FC2068816841F077018160ECE7CB68FE
:101570004A688968206800F074FC2068816841F43A
:1015800080418160E0E7CA684968206800F058FD42
:101590005021206800F070FCD6E7CA6849682068CE
:1015A00000F061FD6021206800F066FCCCE7CA68AD
:1015B0004968206800F044FD4021206800F05CFC90
:1015C000C2E722680146104600F056FCBCE77047AF
:1015D00010B586B00446142101A8FEF7BCFE1249DE
:1015E000206888421DD100BF002000900F4800688D
:1015F00040F001000D4908600846006800F0010055
:10160000009000BF00BF88150190022002900020CA
:101610000390022004900120059001A90448FFF7DF
:101620004DF906B010BD0000000001403038024006
:101630000000024070B50446002594F83C000128E3
:101640000FD0012084F83C006AB1042A0FD0082A88
:1016500011D00C2A13D00125002084F83C00284624
:1016600070BD022070BD206800F00EFCF4E7206819
:1016700000F042FCF0E7206800F07AFCECE720681C
:1016800000F0B2FCE8E710B50446002C03D094F853
:101690003D0010B107E0012010BD002084F83C009F
:1016A000204600F01EF8022084F83D00211D20682D
:1016B00000F0EAFA012084F8460084F83E0084F83D
:1016C0003F0084F8400084F8410084F8420084F828
:1016D000430084F8440084F8450084F83D0000206D
:1016E00010BD7047704770472DE9F04104460D4624
:1016F00017460026002D13D0042D14D0082D15D028
:1017000094F84100022814D0B5B1042D17D0082D4B
:1017100018D094F84100012817D00120BDE8F081CD
:1017200094F83E00EEE794F83F00EBE794F84000B1
:10173000E8E70220BDE8F08194F83E00EBE794F87A
:101740003F00E8E794F84000E5E71FB913B1012036
:10175000BDE8F081022035B1042D07D0082D08D056
:1017600084F8410007E084F83E0004E084F83F007C
:1017700001E084F8400058485849DFF864C14DB191
:10178000042D1FD0082D35D00C2D4BD00126002E56
:1017900060D094E0626AD063606A0164606AC0F8F5
:1017A0004CC02068394600F13402606AFFF73AF80D
:1017B00010B10120BDE8F0812068C16841F40071DA
:1017C000C160E4E7A26AD063A06A0164A06AC0F8BD
:1017D0004CC02068394600F13802A06AFFF722F8B1
:1017E00010B10120BDE8F0812068C16841F480613A
:1017F000C160CCE7E26AD063E06A0164E06AC0F8E5
:101800004CC02068394600F13C02E06AFFF70AF854
:1018100010B10120BDE8F0812068C16841F4006189
:10182000C160B4E7226BD063206B0164206BC0F809
:101830004CC02068394600F14002206BFEF7F2FFF1
:1018400010B10120BDE8F0812068C16841F48051E9
:10185000C1609CE701222946206800F07BFA2149FB
:101860002068214A884201D0904203D1436C43F45E
:10187000004343642068884224D0B0F1804F21D0D7
:10188000A0F18041B1F580611CD0A0F18041B1F59B
:10189000006117D0A0F18041B1F5406112D09042B3
:1018A00010D0A0F18041B1F5A0310BD0A0F1804162
:1018B000B1F5C05106D0016841F001010160304628
:1018C000BDE8F081816801F007010629F7D00168C1
:1018D00041F001010160F2E7731D0008D11D00080D
:1018E0000F1E0008000001400004014070B50446CE
:1018F0000D460026002D08D0042D0FD0082D16D03F
:101900000C2D1DD0012626B353E02068C16821F4B8
:101910000071C160606AFEF706FEF4E72068C168E6
:1019200021F48061C160A06AFEF7FDFDEBE720684D
:10193000C16821F40061C160E06AFEF7F4FDE2E7EE
:101940002068C16821F48051C160206BFEF7EBFD77
:10195000D9E700222946206800F0FCF9206841F20E
:1019600011118A10A0F18043B3F5803304D0A0F1A7
:101970008043B3F5823309D1036A0B4206D1036A6F
:10198000134203D1436C23F4004343642068036A89
:101990000B4206D1016A114203D1016821F0010115
:1019A000016001203DB1042D08D0082D09D084F834
:1019B0004100304670BD84F83E00FAE784F83F00ED
:1019C000F7E784F84000F4E700BFFEE708B500BF82
:1019D000002000900A48006840F480000849086030
:1019E0000846006800F48000009000BF00BF00229D
:1019F00011463920FFF7F4F83920FFF7E3F808BD66
:101A00003038024000B587B0142102A8FEF7A3FCCD
:101A100000BF002001901648006840F00100144902
:101A200008600846006800F00100019000BF00BF98
:101A300000BF002001900846006840F08000086068
:101A40000846006800F08000019000BF00BF4FF41E
:101A5000E0500290022003900120049002200590A3
:101A6000069002A90348FEF729FF07B000BD000059
:101A700030380240001C024000B595B000201190A3
:101A80001290139014900F9010901C2108A8FEF74C
:101A900062FC20216846FEF75EFC2E482E49086055
:101AA0000020486000212C4881606821C16000212D
:101AB000016141618161FFF7A5FC08B1FEF732FDCC
:101AC0004FF48050119011A92348FFF70BFD08B186
:101AD000FEF728FD2048FFF7D6FD08B1FEF722FDEE
:101AE00000200F9010900FA91B48FFF73EFC08B193
:101AF000FEF718FD60200890002009900A900B90D6
:101B00000C900D900E90002208A91348FFF792FD4B
:101B100008B1FEF707FD10480068806940F0080032
:101B20000D4909688861002000900190029003909F
:101B300004904FF400500590002007906946064835
:101B4000FFF7E0FB08B1FEF7EDFC0348FFF740FDAF
:101B500015B000BD000001404025002000BFFEE799
:101B600070477047704710B5FEF7C4FF10BD000006
:101B700000B593B0302107A8FEF7EDFB142102A8B1
:101B8000FEF7E9FB00BF002001902448006840F008
:101B90008050224908600846006800F0805001909B
:101BA00000BF00BF00BF002001901D48006840F446
:101BB00080401B4908600846006800F4804001909E
:101BC00000BF00BF012007900004089002200D9084
:101BD00041050E9106210F91A8211091022111912A
:101BE0000421129107A8FFF737F908B1FEF79AFC14
:101BF0000F20029002200390002004904FF4A05088
:101C000005904FF480500690052102A8FFF72EF8AA
:101C100008B1FEF787FC13B000BD00004038024059
:101C2000007000401448006840F4700012490860D9
:101C30001248006840F001001049086000200F4978
:101C4000083108600D4800680D4908400B490860DC
:101C50000C48091D0860081F006820F48020091F37
:101C60000860002005490C3108604FF0006002490F
:101C7000803908607047000088ED00E000380240BD
:101C8000FFFFF6FE10300024F0B402682C4B2D4C00
:101C90002D4D2E4EDFF8B8C098420AD0B0F1804FDB
:101CA00007D0A04205D0A84203D0B04201D0604581
:101CB00003D122F070024F683A43984228D0B0F125
:101CC000804F25D0A04223D0A84221D0B0421FD0BF
:101CD00060451DD0A0F18044B4F5A03418D0A0F127
:101CE0008044B4F5A23413D0A0F18044B4F5A434F8
:101CF0000ED0A0F18044B4F5C05409D0A0F18044C6
:101D0000B4F5E05404D0A0F18044B4F5005403D1FC
:101D100022F44072CC6822434C6922F080022243B4
:101D200002608A68C2620A688262984201D0604595
:101D300001D10969016301214161F0BC70470000D4
:101D4000000001400004004000080040000C00407A
:101D50000004014001F01F0101238B40D0F820C096
:101D60002CEA03030362036A02FA01F119430162D8
:101D7000704710B5846B0121626A824205D12177D8
:101D8000C069F8B984F83E101CE0A26A824206D10C
:101D900002222277C069A8B984F83F1012E0E26AF3
:101DA000824206D104222277C06958B984F84010D3
:101DB00008E0226B824205D108222277C06908B967
:101DC00084F841102046FFF78DFC0020207710BDDD
:101DD00010B5846B616A814202D10120207710E046
:101DE000A16A814202D1022020770AE0E16A8142A1
:101DF00002D10420207704E0216B814201D1082028
:101E000020772046FFF76FFC0020207710BD10B52B
:101E1000846B0121626A824203D1217784F83E10EB
:101E200019E0A26A824204D10220207784F83F1090
:101E300011E0E26A824204D10420207784F8401045
:101E400009E0226B824204D10820207784F84110F7
:101E500001E084F83D102046FFF7B9FB0020207711
:101E600010BDD0F808C02CF47F4C42EA0322114385
:101E700041EA0C0181607047826822F070021143D0
:101E800041F007018160704770B4026A22F00102DC
:101E90000262036A4268D0F818C02CF0700C2CF073
:101EA000030C0C6844EA0C0C23F002038C682343F7
:101EB0000F4C104DA04201D0A84205D123F00803D9
:101EC000CE68334323F00403A04201D0A84207D1D7
:101ED00022F4807222F400724C6922438C692243FE
:101EE0004260C0F818C049684163036270BC704723
:101EF000000001400004014070B4026A22F01002A8
:101F00000262036A4268D0F818C02CF4E04C2CF44A
:101F1000407C0C684CEA042C23F020038C6843EAD4
:101F20000413114C114DA04201D0A84206D123F058
:101F30008003CE6843EA061323F04003A04201D099
:101F4000A84209D122F4806222F400624C6942EA7C
:101F500084028C6942EA84024260C0F818C0496871
:101F60008163036270BC70470000014000040140BF
:101F700070B4026A22F480720262036A4268D0F886
:101F80001CC02CF0700C2CF0030C0C6844EA0C0CF8
:101F900023F400738C6843EA0423114C114DA042D2
:101FA00001D0A84206D123F40063CE6843EA062399
:101FB00023F48063A04201D0A84209D122F48052C8
:101FC00022F400524C6942EA04128C6942EA04127B
:101FD0004260C0F81CC04968C163036270BC7047AE
:101FE000000001400004014010B4026A22F4805253
:101FF0000262D0F820C04268C36923F4E04323F4AE
:1020000040730C6843EA04232CF4005C8C684CEAAF
:10201000043CA0F18044B4F5803404D0A0F18044A5
:10202000B4F5823404D122F480424C6942EA84122D
:102030004260C36149680164C0F820C010BC7047A9
:10204000036AD0F820C02CF0010CC0F820C0D0F8F2
:1020500018C02CF0F00C4CEA021223F00A031943CA
:10206000826101627047036A23F010030362D0F8B3
:1020700018C0036A2CF4704C4CEA023223F0A0031F
:1020800043EA011182610162704700BFFEE7000070
:102090002DE9F0417A4800687A49884205D97948A3
:1020A0005438006800F480601BE075480068764989
:1020B000884205D973485838006800F4806010E001
:1020C0006F48006870496039884205D96E48B83851
:1020D000406800F4806004E06B48B838006800F4A1
:1020E0008060002844D0664800686649884204D968
:1020F000081564494C39086019E061480068624974
:10210000884204D908155F49503908600FE05C48DF
:1021100000685D496039884204D908155A49B839C0
:10212000C86004E04FF480605749B83988600024E3
:102130001BE0564D2D88254405EB4505544E35448E
:10214000AB78524D2D88254405EB450535446A781A
:102150004E4D2D88254405EB4505715D4D4D1826E6
:1021600006FB045000F0F2F8641C7A2CE1DB6FE00F
:10217000434800684349884205D9424854380068BA
:1021800000F400601BE03E4800683F49884205D9E2
:102190003C485838006800F4006010E03848006897
:1021A00039496039884205D93748B838406800F461
:1021B000006004E03448B838006800F40060E0B320
:1021C0002F4800682F49884204D9C8142D494C393A
:1021D000086019E02A4800682B49884204D9C814CD
:1021E0002849503908600FE02548006826496039C1
:1021F000884204D9C8142449B839C86004E04FF4AF
:1022000000602149B839886000241FE01F4D2D88E7
:10221000254405EB45051E4E3544AB781B4D2D88F6
:10222000254405EB450535446A78184D2D8825442D
:1022300005EB4505715D174E00E009E004F17A05F4
:10224000182707FB056000F081F8641C7A2CDDDBA1
:102250000E48008840F2C44188420ADD00200B4944
:1022600008800D49087000210C48FFF73FFBBDE8CE
:10227000F081064800887A300449088000BFF6E7FC
:102280008825002058640240B86002400200002007
:10229000F41600201400002000000020402500203B
:1022A000FEF730FCFFF764FCFFF7ACFBFFF78EFB9B
:1022B000FFF7E2FB00F008F804E000F029F86420E2
:1022C000FEF7E8FAF9E7000010B51048006800686A
:1022D00040F008000D49096808600C480068006873
:1022E00040F01000094909680860002406E0A0B227
:1022F00064231A46194600F019F8641C40F2C440E1
:102300008442F4DB00F004F810BD000088250020B2
:1023100010B54FF4B753034A00210348FFF7E4F91F
:1023200010BD0000140000204025002030B500EB57
:102330004004054D295500EB40042C44627000EB2D
:1023400040042C44A37030BDF4160020F0B50024E6
:102350000025160646EA014646EA032418250AE047
:1023600004F000461EB1452600F8016B02E023266A
:1023700000F8016B64002E1EA5F10107FDB2EFD13C
:10238000F0BD4FF04070E1EE100A70470000000011
:102390000000000001020304060708090000000015
:1023A000010203040006101600061016CC230008D4
:1023B0000000002014000000C4010008E023000811
:1023C00014000020342C0000E00100080000000090
:1023D0000024F400010000001000000000000000D4
:040000050800018965
:00000001FF
